{
  "_format": "hh-sol-artifact-1",
  "contractName": "MyEpicNFT",
  "sourceName": "contracts/MyEpicNFT.sol",
  "abi": [
    {
      "inputs": [],
      "stateMutability": "nonpayable",
      "type": "constructor"
    },
    {
      "anonymous": false,
      "inputs": [
        {
          "indexed": true,
          "internalType": "address",
          "name": "owner",
          "type": "address"
        },
        {
          "indexed": true,
          "internalType": "address",
          "name": "approved",
          "type": "address"
        },
        {
          "indexed": true,
          "internalType": "uint256",
          "name": "tokenId",
          "type": "uint256"
        }
      ],
      "name": "Approval",
      "type": "event"
    },
    {
      "anonymous": false,
      "inputs": [
        {
          "indexed": true,
          "internalType": "address",
          "name": "owner",
          "type": "address"
        },
        {
          "indexed": true,
          "internalType": "address",
          "name": "operator",
          "type": "address"
        },
        {
          "indexed": false,
          "internalType": "bool",
          "name": "approved",
          "type": "bool"
        }
      ],
      "name": "ApprovalForAll",
      "type": "event"
    },
    {
      "anonymous": false,
      "inputs": [
        {
          "indexed": false,
          "internalType": "address",
          "name": "sender",
          "type": "address"
        },
        {
          "indexed": false,
          "internalType": "uint256",
          "name": "tokenId",
          "type": "uint256"
        }
      ],
      "name": "NewEpicNFTMinted",
      "type": "event"
    },
    {
      "anonymous": false,
      "inputs": [
        {
          "indexed": true,
          "internalType": "address",
          "name": "from",
          "type": "address"
        },
        {
          "indexed": true,
          "internalType": "address",
          "name": "to",
          "type": "address"
        },
        {
          "indexed": true,
          "internalType": "uint256",
          "name": "tokenId",
          "type": "uint256"
        }
      ],
      "name": "Transfer",
      "type": "event"
    },
    {
      "inputs": [
        {
          "internalType": "address",
          "name": "to",
          "type": "address"
        },
        {
          "internalType": "uint256",
          "name": "tokenId",
          "type": "uint256"
        }
      ],
      "name": "approve",
      "outputs": [],
      "stateMutability": "nonpayable",
      "type": "function"
    },
    {
      "inputs": [
        {
          "internalType": "address",
          "name": "owner",
          "type": "address"
        }
      ],
      "name": "balanceOf",
      "outputs": [
        {
          "internalType": "uint256",
          "name": "",
          "type": "uint256"
        }
      ],
      "stateMutability": "view",
      "type": "function"
    },
    {
      "inputs": [
        {
          "internalType": "uint256",
          "name": "tokenId",
          "type": "uint256"
        }
      ],
      "name": "getApproved",
      "outputs": [
        {
          "internalType": "address",
          "name": "",
          "type": "address"
        }
      ],
      "stateMutability": "view",
      "type": "function"
    },
    {
      "inputs": [
        {
          "internalType": "address",
          "name": "owner",
          "type": "address"
        },
        {
          "internalType": "address",
          "name": "operator",
          "type": "address"
        }
      ],
      "name": "isApprovedForAll",
      "outputs": [
        {
          "internalType": "bool",
          "name": "",
          "type": "bool"
        }
      ],
      "stateMutability": "view",
      "type": "function"
    },
    {
      "inputs": [],
      "name": "makeAnEpicNFT",
      "outputs": [],
      "stateMutability": "nonpayable",
      "type": "function"
    },
    {
      "inputs": [],
      "name": "name",
      "outputs": [
        {
          "internalType": "string",
          "name": "",
          "type": "string"
        }
      ],
      "stateMutability": "view",
      "type": "function"
    },
    {
      "inputs": [
        {
          "internalType": "uint256",
          "name": "tokenId",
          "type": "uint256"
        }
      ],
      "name": "ownerOf",
      "outputs": [
        {
          "internalType": "address",
          "name": "",
          "type": "address"
        }
      ],
      "stateMutability": "view",
      "type": "function"
    },
    {
      "inputs": [
        {
          "internalType": "uint256",
          "name": "tokenId",
          "type": "uint256"
        }
      ],
      "name": "pickRandomBg",
      "outputs": [
        {
          "internalType": "string",
          "name": "",
          "type": "string"
        }
      ],
      "stateMutability": "view",
      "type": "function"
    },
    {
      "inputs": [
        {
          "internalType": "uint256",
          "name": "tokenId",
          "type": "uint256"
        }
      ],
      "name": "pickRandomFill",
      "outputs": [
        {
          "internalType": "string",
          "name": "",
          "type": "string"
        }
      ],
      "stateMutability": "view",
      "type": "function"
    },
    {
      "inputs": [
        {
          "internalType": "uint256",
          "name": "tokenId",
          "type": "uint256"
        }
      ],
      "name": "pickRandomStroke",
      "outputs": [
        {
          "internalType": "string",
          "name": "",
          "type": "string"
        }
      ],
      "stateMutability": "view",
      "type": "function"
    },
    {
      "inputs": [
        {
          "internalType": "address",
          "name": "from",
          "type": "address"
        },
        {
          "internalType": "address",
          "name": "to",
          "type": "address"
        },
        {
          "internalType": "uint256",
          "name": "tokenId",
          "type": "uint256"
        }
      ],
      "name": "safeTransferFrom",
      "outputs": [],
      "stateMutability": "nonpayable",
      "type": "function"
    },
    {
      "inputs": [
        {
          "internalType": "address",
          "name": "from",
          "type": "address"
        },
        {
          "internalType": "address",
          "name": "to",
          "type": "address"
        },
        {
          "internalType": "uint256",
          "name": "tokenId",
          "type": "uint256"
        },
        {
          "internalType": "bytes",
          "name": "_data",
          "type": "bytes"
        }
      ],
      "name": "safeTransferFrom",
      "outputs": [],
      "stateMutability": "nonpayable",
      "type": "function"
    },
    {
      "inputs": [
        {
          "internalType": "address",
          "name": "operator",
          "type": "address"
        },
        {
          "internalType": "bool",
          "name": "approved",
          "type": "bool"
        }
      ],
      "name": "setApprovalForAll",
      "outputs": [],
      "stateMutability": "nonpayable",
      "type": "function"
    },
    {
      "inputs": [
        {
          "internalType": "bytes4",
          "name": "interfaceId",
          "type": "bytes4"
        }
      ],
      "name": "supportsInterface",
      "outputs": [
        {
          "internalType": "bool",
          "name": "",
          "type": "bool"
        }
      ],
      "stateMutability": "view",
      "type": "function"
    },
    {
      "inputs": [],
      "name": "symbol",
      "outputs": [
        {
          "internalType": "string",
          "name": "",
          "type": "string"
        }
      ],
      "stateMutability": "view",
      "type": "function"
    },
    {
      "inputs": [
        {
          "internalType": "uint256",
          "name": "tokenId",
          "type": "uint256"
        }
      ],
      "name": "tokenURI",
      "outputs": [
        {
          "internalType": "string",
          "name": "",
          "type": "string"
        }
      ],
      "stateMutability": "view",
      "type": "function"
    },
    {
      "inputs": [
        {
          "internalType": "address",
          "name": "from",
          "type": "address"
        },
        {
          "internalType": "address",
          "name": "to",
          "type": "address"
        },
        {
          "internalType": "uint256",
          "name": "tokenId",
          "type": "uint256"
        }
      ],
      "name": "transferFrom",
      "outputs": [],
      "stateMutability": "nonpayable",
      "type": "function"
    }
  ],
  "bytecode": "0x60806040526040518060c001604052806040518060400160405280600681526020017f707572706c65000000000000000000000000000000000000000000000000000081525081526020016040518060400160405280600481526020017f677261790000000000000000000000000000000000000000000000000000000081525081526020016040518060400160405280600681526020017f6f72616e6765000000000000000000000000000000000000000000000000000081525081526020016040518060400160405280600481526020017f626c75650000000000000000000000000000000000000000000000000000000081525081526020016040518060400160405280600381526020017f726564000000000000000000000000000000000000000000000000000000000081525081526020016040518060400160405280600581526020017f677265656e0000000000000000000000000000000000000000000000000000008152508152506008906006620001819291906200074c565b506040518060c001604052806040518060400160405280600481526020017f626c75650000000000000000000000000000000000000000000000000000000081525081526020016040518060400160405280600381526020017f726564000000000000000000000000000000000000000000000000000000000081525081526020016040518060400160405280600581526020017f677265656e00000000000000000000000000000000000000000000000000000081525081526020016040518060400160405280600681526020017f79656c6c6f77000000000000000000000000000000000000000000000000000081525081526020016040518060400160405280600481526020017f677261790000000000000000000000000000000000000000000000000000000081525081526020016040518060400160405280600681526020017f6f72616e676500000000000000000000000000000000000000000000000000008152508152506009906006620002ff9291906200074c565b506040518060e001604052806040518060400160405280600481526020017f6379616e0000000000000000000000000000000000000000000000000000000081525081526020016040518060400160405280600581526020017f626c61636b00000000000000000000000000000000000000000000000000000081525081526020016040518060400160405280600781526020017f6d6167656e74610000000000000000000000000000000000000000000000000081525081526020016040518060400160405280600481526020017f626c75650000000000000000000000000000000000000000000000000000000081525081526020016040518060400160405280600381526020017f726564000000000000000000000000000000000000000000000000000000000081525081526020016040518060400160405280600581526020017f677265656e00000000000000000000000000000000000000000000000000000081525081526020016040518060400160405280600681526020017f79656c6c6f770000000000000000000000000000000000000000000000000000815250815250600a906007620004b8929190620007b3565b506040518060600160405280603e8152602001620044be603e9139600b9080519060200190620004ea9291906200081a565b50604051806080016040528060538152602001620044fc60539139600c90805190602001906200051c9291906200081a565b506040518060600160405280602981526020016200454f60299139600d90805190602001906200054e9291906200081a565b506040518060c00160405280608c815260200162004578608c9139600e9080519060200190620005809291906200081a565b503480156200058e57600080fd5b506040518060400160405280600981526020017f5371756172654e465400000000000000000000000000000000000000000000008152506040518060400160405280600681526020017f53515541524500000000000000000000000000000000000000000000000000008152508160009080519060200190620006139291906200081a565b5080600190805190602001906200062c9291906200081a565b5050506200067a6040518060400160405280600681526020017f4d79204e465400000000000000000000000000000000000000000000000000008152506200068060201b620010d01760201c565b62000a65565b620007208160405160240162000697919062000979565b6040516020818303038152906040527f41304fac000000000000000000000000000000000000000000000000000000007bffffffffffffffffffffffffffffffffffffffffffffffffffffffff19166020820180517bffffffffffffffffffffffffffffffffffffffffffffffffffffffff83818316178352505050506200072360201b60201c565b50565b60008151905060006a636f6e736f6c652e6c6f679050602083016000808483855afa5050505050565b828054828255906000526020600020908101928215620007a0579160200282015b828111156200079f5782518290805190602001906200078e9291906200081a565b50916020019190600101906200076d565b5b509050620007af9190620008ab565b5090565b82805482825590600052602060002090810192821562000807579160200282015b8281111562000806578251829080519060200190620007f59291906200081a565b5091602001919060010190620007d4565b5b509050620008169190620008ab565b5090565b8280546200082890620009ef565b90600052602060002090601f0160209004810192826200084c576000855562000898565b82601f106200086757805160ff191683800117855562000898565b8280016001018555821562000898579182015b82811115620008975782518255916020019190600101906200087a565b5b509050620008a79190620008d3565b5090565b5b80821115620008cf5760008181620008c59190620008f2565b50600101620008ac565b5090565b5b80821115620008ee576000816000905550600101620008d4565b5090565b5080546200090090620009ef565b6000825580601f1062000914575062000935565b601f016020900490600052602060002090810190620009349190620008d3565b5b50565b600062000945826200099d565b620009518185620009a8565b935062000963818560208601620009b9565b6200096e8162000a54565b840191505092915050565b6000602082019050818103600083015262000995818462000938565b905092915050565b600081519050919050565b600082825260208201905092915050565b60005b83811015620009d9578082015181840152602081019050620009bc565b83811115620009e9576000848401525b50505050565b6000600282049050600182168062000a0857607f821691505b6020821081141562000a1f5762000a1e62000a25565b5b50919050565b7f4e487b7100000000000000000000000000000000000000000000000000000000600052602260045260246000fd5b6000601f19601f8301169050919050565b613a498062000a756000396000f3fe608060405234801561001057600080fd5b506004361061010b5760003560e01c806370a08231116100a2578063b88d4fde11610071578063b88d4fde146102dc578063c87b56dd146102f8578063cea887f014610328578063de9d132f14610358578063e985e9c5146103625761010b565b806370a082311461024257806395d89b411461027257806396a9a53514610290578063a22cb465146102c05761010b565b806323b872dd116100de57806323b872dd146101aa57806328e8f54c146101c657806342842e0e146101f65780636352211e146102125761010b565b806301ffc9a71461011057806306fdde0314610140578063081812fc1461015e578063095ea7b31461018e575b600080fd5b61012a6004803603810190610125919061256f565b610392565b6040516101379190613273565b60405180910390f35b610148610474565b604051610155919061328e565b60405180910390f35b610178600480360381019061017391906125c1565b610506565b60405161018591906131e3565b60405180910390f35b6101a860048036038101906101a39190612533565b61058b565b005b6101c460048036038101906101bf919061242d565b6106a3565b005b6101e060048036038101906101db91906125c1565b610703565b6040516101ed919061328e565b60405180910390f35b610210600480360381019061020b919061242d565b610821565b005b61022c600480360381019061022791906125c1565b610841565b60405161023991906131e3565b60405180910390f35b61025c600480360381019061025791906123c8565b6108f3565b604051610269919061353a565b60405180910390f35b61027a6109ab565b604051610287919061328e565b60405180910390f35b6102aa60048036038101906102a591906125c1565b610a3d565b6040516102b7919061328e565b60405180910390f35b6102da60048036038101906102d591906124f7565b610b5b565b005b6102f660048036038101906102f1919061247c565b610b71565b005b610312600480360381019061030d91906125c1565b610bd3565b60405161031f919061328e565b60405180910390f35b610342600480360381019061033d91906125c1565b610d25565b60405161034f919061328e565b60405180910390f35b610360610e43565b005b61037c600480360381019061037791906123f1565b61103c565b6040516103899190613273565b60405180910390f35b60007f80ac58cd000000000000000000000000000000000000000000000000000000007bffffffffffffffffffffffffffffffffffffffffffffffffffffffff1916827bffffffffffffffffffffffffffffffffffffffffffffffffffffffff1916148061045d57507f5b5e139f000000000000000000000000000000000000000000000000000000007bffffffffffffffffffffffffffffffffffffffffffffffffffffffff1916827bffffffffffffffffffffffffffffffffffffffffffffffffffffffff1916145b8061046d575061046c82611169565b5b9050919050565b606060008054610483906137d9565b80601f01602080910402602001604051908101604052809291908181526020018280546104af906137d9565b80156104fc5780601f106104d1576101008083540402835291602001916104fc565b820191906000526020600020905b8154815290600101906020018083116104df57829003601f168201915b5050505050905090565b6000610511826111d3565b610550576040517f08c379a00000000000000000000000000000000000000000000000000000000081526004016105479061349a565b60405180910390fd5b6004600083815260200190815260200160002060009054906101000a900473ffffffffffffffffffffffffffffffffffffffff169050919050565b600061059682610841565b90508073ffffffffffffffffffffffffffffffffffffffff168373ffffffffffffffffffffffffffffffffffffffff161415610607576040517f08c379a00000000000000000000000000000000000000000000000000000000081526004016105fe906134fa565b60405180910390fd5b8073ffffffffffffffffffffffffffffffffffffffff1661062661123f565b73ffffffffffffffffffffffffffffffffffffffff16148061065557506106548161064f61123f565b61103c565b5b610694576040517f08c379a000000000000000000000000000000000000000000000000000000000815260040161068b906133da565b60405180910390fd5b61069e8383611247565b505050565b6106b46106ae61123f565b82611300565b6106f3576040517f08c379a00000000000000000000000000000000000000000000000000000000081526004016106ea9061351a565b60405180910390fd5b6106fe8383836113de565b505050565b606060006107376107138461163a565b60405160200161072391906131c1565b6040516020818303038152906040526117e7565b9050600a805490508161074a9190613854565b9050600a8181548110610786577f4e487b7100000000000000000000000000000000000000000000000000000000600052603260045260246000fd5b90600052602060002001805461079b906137d9565b80601f01602080910402602001604051908101604052809291908181526020018280546107c7906137d9565b80156108145780601f106107e957610100808354040283529160200191610814565b820191906000526020600020905b8154815290600101906020018083116107f757829003601f168201915b5050505050915050919050565b61083c83838360405180602001604052806000815250610b71565b505050565b6000806002600084815260200190815260200160002060009054906101000a900473ffffffffffffffffffffffffffffffffffffffff169050600073ffffffffffffffffffffffffffffffffffffffff168173ffffffffffffffffffffffffffffffffffffffff1614156108ea576040517f08c379a00000000000000000000000000000000000000000000000000000000081526004016108e19061341a565b60405180910390fd5b80915050919050565b60008073ffffffffffffffffffffffffffffffffffffffff168273ffffffffffffffffffffffffffffffffffffffff161415610964576040517f08c379a000000000000000000000000000000000000000000000000000000000815260040161095b906133fa565b60405180910390fd5b600360008373ffffffffffffffffffffffffffffffffffffffff1673ffffffffffffffffffffffffffffffffffffffff168152602001908152602001600020549050919050565b6060600180546109ba906137d9565b80601f01602080910402602001604051908101604052809291908181526020018280546109e6906137d9565b8015610a335780601f10610a0857610100808354040283529160200191610a33565b820191906000526020600020905b815481529060010190602001808311610a1657829003601f168201915b5050505050905090565b60606000610a71610a4d8461163a565b604051602001610a5d91906130fd565b6040516020818303038152906040526117e7565b905060098054905081610a849190613854565b905060098181548110610ac0577f4e487b7100000000000000000000000000000000000000000000000000000000600052603260045260246000fd5b906000526020600020018054610ad5906137d9565b80601f0160208091040260200160405190810160405280929190818152602001828054610b01906137d9565b8015610b4e5780601f10610b2357610100808354040283529160200191610b4e565b820191906000526020600020905b815481529060010190602001808311610b3157829003601f168201915b5050505050915050919050565b610b6d610b6661123f565b838361181a565b5050565b610b82610b7c61123f565b83611300565b610bc1576040517f08c379a0000000000000000000000000000000000000000000000000000000008152600401610bb89061351a565b60405180910390fd5b610bcd84848484611987565b50505050565b6060610bde826111d3565b610c1d576040517f08c379a0000000000000000000000000000000000000000000000000000000008152600401610c149061347a565b60405180910390fd5b6000600660008481526020019081526020016000208054610c3d906137d9565b80601f0160208091040260200160405190810160405280929190818152602001828054610c69906137d9565b8015610cb65780601f10610c8b57610100808354040283529160200191610cb6565b820191906000526020600020905b815481529060010190602001808311610c9957829003601f168201915b505050505090506000610cc76119e3565b9050600081511415610cdd578192505050610d20565b600082511115610d12578082604051602001610cfa929190613030565b60405160208183030381529060405292505050610d20565b610d1b846119fa565b925050505b919050565b60606000610d59610d358461163a565b604051602001610d4591906130db565b6040516020818303038152906040526117e7565b905060088054905081610d6c9190613854565b905060088181548110610da8577f4e487b7100000000000000000000000000000000000000000000000000000000600052603260045260246000fd5b906000526020600020018054610dbd906137d9565b80601f0160208091040260200160405190810160405280929190818152602001828054610de9906137d9565b8015610e365780601f10610e0b57610100808354040283529160200191610e36565b820191906000526020600020905b815481529060010190602001808311610e1957829003601f168201915b5050505050915050919050565b6000610e4f6007611aa1565b90506000610e5c82610d25565b90506000610e6983610a3d565b90506000610e7684610703565b9050610e83838383611aaf565b6000600b83600c86600d86600e604051602001610ea69796959493929190613054565b60405160208183030381529060405290506000610eef858585610ec886611b4e565b604051602001610edb949392919061311f565b604051602081830303815290604052611b4e565b9050600081604051602001610f04919061319f565b6040516020818303038152906040529050610f1f3388611d0c565b610f5d6040518060400160405280601581526020017f0a2d2d2d2d2d2d2d2d2d2d2d2d2d2d2d2d2d2d2d2d00000000000000000000008152506110d0565b610f8581604051602001610f7191906130b9565b6040516020818303038152906040526110d0565b610fc36040518060400160405280601581526020017f2d2d2d2d2d2d2d2d2d2d2d2d2d2d2d2d2d2d2d2d0a00000000000000000000008152506110d0565b610fcd8782611d2a565b610ff06040518060600160405280602581526020016139af602591398833611d9e565b610ffa6007611e3d565b7febb98688741ffa4c7589bf325de30cf7becb63de567842e1ccdb6cb949fdc82c338860405161102b92919061324a565b60405180910390a150505050505050565b6000600560008473ffffffffffffffffffffffffffffffffffffffff1673ffffffffffffffffffffffffffffffffffffffff16815260200190815260200160002060008373ffffffffffffffffffffffffffffffffffffffff1673ffffffffffffffffffffffffffffffffffffffff16815260200190815260200160002060009054906101000a900460ff16905092915050565b611166816040516024016110e4919061328e565b6040516020818303038152906040527f41304fac000000000000000000000000000000000000000000000000000000007bffffffffffffffffffffffffffffffffffffffffffffffffffffffff19166020820180517bffffffffffffffffffffffffffffffffffffffffffffffffffffffff8381831617835250505050611e53565b50565b60007f01ffc9a7000000000000000000000000000000000000000000000000000000007bffffffffffffffffffffffffffffffffffffffffffffffffffffffff1916827bffffffffffffffffffffffffffffffffffffffffffffffffffffffff1916149050919050565b60008073ffffffffffffffffffffffffffffffffffffffff166002600084815260200190815260200160002060009054906101000a900473ffffffffffffffffffffffffffffffffffffffff1673ffffffffffffffffffffffffffffffffffffffff1614159050919050565b600033905090565b816004600083815260200190815260200160002060006101000a81548173ffffffffffffffffffffffffffffffffffffffff021916908373ffffffffffffffffffffffffffffffffffffffff160217905550808273ffffffffffffffffffffffffffffffffffffffff166112ba83610841565b73ffffffffffffffffffffffffffffffffffffffff167f8c5be1e5ebec7d5bd14f71427d1e84f3dd0314c0f7b2291e5b200ac8c7c3b92560405160405180910390a45050565b600061130b826111d3565b61134a576040517f08c379a0000000000000000000000000000000000000000000000000000000008152600401611341906133ba565b60405180910390fd5b600061135583610841565b90508073ffffffffffffffffffffffffffffffffffffffff168473ffffffffffffffffffffffffffffffffffffffff1614806113c457508373ffffffffffffffffffffffffffffffffffffffff166113ac84610506565b73ffffffffffffffffffffffffffffffffffffffff16145b806113d557506113d4818561103c565b5b91505092915050565b8273ffffffffffffffffffffffffffffffffffffffff166113fe82610841565b73ffffffffffffffffffffffffffffffffffffffff1614611454576040517f08c379a000000000000000000000000000000000000000000000000000000000815260040161144b906134ba565b60405180910390fd5b600073ffffffffffffffffffffffffffffffffffffffff168273ffffffffffffffffffffffffffffffffffffffff1614156114c4576040517f08c379a00000000000000000000000000000000000000000000000000000000081526004016114bb9061337a565b60405180910390fd5b6114cf838383611e7c565b6114da600082611247565b6001600360008573ffffffffffffffffffffffffffffffffffffffff1673ffffffffffffffffffffffffffffffffffffffff168152602001908152602001600020600082825461152a91906136ef565b925050819055506001600360008473ffffffffffffffffffffffffffffffffffffffff1673ffffffffffffffffffffffffffffffffffffffff1681526020019081526020016000206000828254611581919061360e565b92505081905550816002600083815260200190815260200160002060006101000a81548173ffffffffffffffffffffffffffffffffffffffff021916908373ffffffffffffffffffffffffffffffffffffffff160217905550808273ffffffffffffffffffffffffffffffffffffffff168473ffffffffffffffffffffffffffffffffffffffff167fddf252ad1be2c89b69c2b068fc378daa952ba7f163c4a11628f55a4df523b3ef60405160405180910390a4505050565b60606000821415611682576040518060400160405280600181526020017f300000000000000000000000000000000000000000000000000000000000000081525090506117e2565b600082905060005b600082146116b457808061169d9061380b565b915050600a826116ad9190613664565b915061168a565b60008167ffffffffffffffff8111156116f6577f4e487b7100000000000000000000000000000000000000000000000000000000600052604160045260246000fd5b6040519080825280601f01601f1916602001820160405280156117285781602001600182028036833780820191505090505b5090505b600085146117db5760018261174191906136ef565b9150600a856117509190613854565b603061175c919061360e565b60f81b818381518110611798577f4e487b7100000000000000000000000000000000000000000000000000000000600052603260045260246000fd5b60200101907effffffffffffffffffffffffffffffffffffffffffffffffffffffffffffff1916908160001a905350600a856117d49190613664565b945061172c565b8093505050505b919050565b6000816040516020016117fa9190613019565b6040516020818303038152906040528051906020012060001c9050919050565b8173ffffffffffffffffffffffffffffffffffffffff168373ffffffffffffffffffffffffffffffffffffffff161415611889576040517f08c379a00000000000000000000000000000000000000000000000000000000081526004016118809061339a565b60405180910390fd5b80600560008573ffffffffffffffffffffffffffffffffffffffff1673ffffffffffffffffffffffffffffffffffffffff16815260200190815260200160002060008473ffffffffffffffffffffffffffffffffffffffff1673ffffffffffffffffffffffffffffffffffffffff16815260200190815260200160002060006101000a81548160ff0219169083151502179055508173ffffffffffffffffffffffffffffffffffffffff168373ffffffffffffffffffffffffffffffffffffffff167f17307eab39ab6107e8899845ad3d59bd9653f200f220920489ca2b5937696c318360405161197a9190613273565b60405180910390a3505050565b6119928484846113de565b61199e84848484611e81565b6119dd576040517f08c379a00000000000000000000000000000000000000000000000000000000081526004016119d49061333a565b60405180910390fd5b50505050565b606060405180602001604052806000815250905090565b6060611a05826111d3565b611a44576040517f08c379a0000000000000000000000000000000000000000000000000000000008152600401611a3b906134da565b60405180910390fd5b6000611a4e6119e3565b90506000815111611a6e5760405180602001604052806000815250611a99565b80611a788461163a565b604051602001611a89929190613030565b6040516020818303038152906040525b915050919050565b600081600001549050919050565b611b49838383604051602401611ac7939291906132b0565b6040516020818303038152906040527f2ced7cef000000000000000000000000000000000000000000000000000000007bffffffffffffffffffffffffffffffffffffffffffffffffffffffff19166020820180517bffffffffffffffffffffffffffffffffffffffffffffffffffffffff8381831617835250505050611e53565b505050565b60606000825190506000811415611b775760405180602001604052806000815250915050611d07565b60006003600283611b88919061360e565b611b929190613664565b6004611b9e9190613695565b90506000602082611baf919061360e565b67ffffffffffffffff811115611bee577f4e487b7100000000000000000000000000000000000000000000000000000000600052604160045260246000fd5b6040519080825280601f01601f191660200182016040528015611c205781602001600182028036833780820191505090505b50905060006040518060600160405280604081526020016139d4604091399050600181016020830160005b86811015611cc45760038101905062ffffff818a015116603f8160121c168401518060081b905060ff603f83600c1c1686015116810190508060081b905060ff603f8360061c1686015116810190508060081b905060ff603f831686015116810190508060e01b90508084526004840193505050611c4b565b506003860660018114611cde5760028114611cee57611cf9565b613d3d60f01b6002830352611cf9565b603d60f81b60018303525b508484525050819450505050505b919050565b611d26828260405180602001604052806000815250612018565b5050565b611d33826111d3565b611d72576040517f08c379a0000000000000000000000000000000000000000000000000000000008152600401611d699061343a565b60405180910390fd5b80600660008481526020019081526020016000209080519060200190611d99929190612254565b505050565b611e38838383604051602401611db6939291906132fc565b6040516020818303038152906040527fe3849f79000000000000000000000000000000000000000000000000000000007bffffffffffffffffffffffffffffffffffffffffffffffffffffffff19166020820180517bffffffffffffffffffffffffffffffffffffffffffffffffffffffff8381831617835250505050611e53565b505050565b6001816000016000828254019250508190555050565b60008151905060006a636f6e736f6c652e6c6f679050602083016000808483855afa5050505050565b505050565b6000611ea28473ffffffffffffffffffffffffffffffffffffffff16612073565b1561200b578373ffffffffffffffffffffffffffffffffffffffff1663150b7a02611ecb61123f565b8786866040518563ffffffff1660e01b8152600401611eed94939291906131fe565b602060405180830381600087803b158015611f0757600080fd5b505af1925050508015611f3857506040513d601f19601f82011682018060405250810190611f359190612598565b60015b611fbb573d8060008114611f68576040519150601f19603f3d011682016040523d82523d6000602084013e611f6d565b606091505b50600081511415611fb3576040517f08c379a0000000000000000000000000000000000000000000000000000000008152600401611faa9061333a565b60405180910390fd5b805181602001fd5b63150b7a0260e01b7bffffffffffffffffffffffffffffffffffffffffffffffffffffffff1916817bffffffffffffffffffffffffffffffffffffffffffffffffffffffff191614915050612010565b600190505b949350505050565b6120228383612086565b61202f6000848484611e81565b61206e576040517f08c379a00000000000000000000000000000000000000000000000000000000081526004016120659061333a565b60405180910390fd5b505050565b600080823b905060008111915050919050565b600073ffffffffffffffffffffffffffffffffffffffff168273ffffffffffffffffffffffffffffffffffffffff1614156120f6576040517f08c379a00000000000000000000000000000000000000000000000000000000081526004016120ed9061345a565b60405180910390fd5b6120ff816111d3565b1561213f576040517f08c379a00000000000000000000000000000000000000000000000000000000081526004016121369061335a565b60405180910390fd5b61214b60008383611e7c565b6001600360008473ffffffffffffffffffffffffffffffffffffffff1673ffffffffffffffffffffffffffffffffffffffff168152602001908152602001600020600082825461219b919061360e565b92505081905550816002600083815260200190815260200160002060006101000a81548173ffffffffffffffffffffffffffffffffffffffff021916908373ffffffffffffffffffffffffffffffffffffffff160217905550808273ffffffffffffffffffffffffffffffffffffffff16600073ffffffffffffffffffffffffffffffffffffffff167fddf252ad1be2c89b69c2b068fc378daa952ba7f163c4a11628f55a4df523b3ef60405160405180910390a45050565b828054612260906137d9565b90600052602060002090601f01602090048101928261228257600085556122c9565b82601f1061229b57805160ff19168380011785556122c9565b828001600101855582156122c9579182015b828111156122c85782518255916020019190600101906122ad565b5b5090506122d691906122da565b5090565b5b808211156122f35760008160009055506001016122db565b5090565b600061230a61230584613586565b613555565b90508281526020810184848401111561232257600080fd5b61232d848285613797565b509392505050565b60008135905061234481613952565b92915050565b60008135905061235981613969565b92915050565b60008135905061236e81613980565b92915050565b60008151905061238381613980565b92915050565b600082601f83011261239a57600080fd5b81356123aa8482602086016122f7565b91505092915050565b6000813590506123c281613997565b92915050565b6000602082840312156123da57600080fd5b60006123e884828501612335565b91505092915050565b6000806040838503121561240457600080fd5b600061241285828601612335565b925050602061242385828601612335565b9150509250929050565b60008060006060848603121561244257600080fd5b600061245086828701612335565b935050602061246186828701612335565b9250506040612472868287016123b3565b9150509250925092565b6000806000806080858703121561249257600080fd5b60006124a087828801612335565b94505060206124b187828801612335565b93505060406124c2878288016123b3565b925050606085013567ffffffffffffffff8111156124df57600080fd5b6124eb87828801612389565b91505092959194509250565b6000806040838503121561250a57600080fd5b600061251885828601612335565b92505060206125298582860161234a565b9150509250929050565b6000806040838503121561254657600080fd5b600061255485828601612335565b9250506020612565858286016123b3565b9150509250929050565b60006020828403121561258157600080fd5b600061258f8482850161235f565b91505092915050565b6000602082840312156125aa57600080fd5b60006125b884828501612374565b91505092915050565b6000602082840312156125d357600080fd5b60006125e1848285016123b3565b91505092915050565b6125f381613723565b82525050565b61260281613735565b82525050565b6000612613826135cb565b61261d81856135e1565b935061262d8185602086016137a6565b61263681613941565b840191505092915050565b600061264c826135d6565b61265681856135f2565b93506126668185602086016137a6565b61266f81613941565b840191505092915050565b6000612685826135d6565b61268f8185613603565b935061269f8185602086016137a6565b80840191505092915050565b600081546126b8816137d9565b6126c28186613603565b945060018216600081146126dd57600181146126ee57612721565b60ff19831686528186019350612721565b6126f7856135b6565b60005b83811015612719578154818901526001820191506020810190506126fa565b838801955050505b50505092915050565b6000612737602583613603565b91507f68747470733a2f2f6e6674707265766965772e30786465762e636f6465732f3f60008301527f636f64653d0000000000000000000000000000000000000000000000000000006020830152602582019050919050565b600061279d6032836135f2565b91507f4552433732313a207472616e7366657220746f206e6f6e20455243373231526560008301527f63656976657220696d706c656d656e74657200000000000000000000000000006020830152604082019050919050565b6000612803601c836135f2565b91507f4552433732313a20746f6b656e20616c7265616479206d696e746564000000006000830152602082019050919050565b60006128436024836135f2565b91507f4552433732313a207472616e7366657220746f20746865207a65726f2061646460008301527f72657373000000000000000000000000000000000000000000000000000000006020830152604082019050919050565b60006128a96019836135f2565b91507f4552433732313a20617070726f766520746f2063616c6c6572000000000000006000830152602082019050919050565b60006128e9602c836135f2565b91507f4552433732313a206f70657261746f7220717565727920666f72206e6f6e657860008301527f697374656e7420746f6b656e00000000000000000000000000000000000000006020830152604082019050919050565b600061294f6038836135f2565b91507f4552433732313a20617070726f76652063616c6c6572206973206e6f74206f7760008301527f6e6572206e6f7220617070726f76656420666f7220616c6c00000000000000006020830152604082019050919050565b60006129b5600983613603565b91507f42475f434f4c4f525300000000000000000000000000000000000000000000006000830152600982019050919050565b60006129f5602a836135f2565b91507f4552433732313a2062616c616e636520717565727920666f7220746865207a6560008301527f726f2061646472657373000000000000000000000000000000000000000000006020830152604082019050919050565b6000612a5b6029836135f2565b91507f4552433732313a206f776e657220717565727920666f72206e6f6e657869737460008301527f656e7420746f6b656e00000000000000000000000000000000000000000000006020830152604082019050919050565b6000612ac1602e836135f2565b91507f45524337323155524953746f726167653a2055524920736574206f66206e6f6e60008301527f6578697374656e7420746f6b656e0000000000000000000000000000000000006020830152604082019050919050565b6000612b27600b83613603565b91507f46494c4c5f434f4c4f52530000000000000000000000000000000000000000006000830152600b82019050919050565b6000612b67600283613603565b91507f227d0000000000000000000000000000000000000000000000000000000000006000830152600282019050919050565b6000612ba76020836135f2565b91507f4552433732313a206d696e7420746f20746865207a65726f20616464726573736000830152602082019050919050565b6000612be76031836135f2565b91507f45524337323155524953746f726167653a2055524920717565727920666f722060008301527f6e6f6e6578697374656e7420746f6b656e0000000000000000000000000000006020830152604082019050919050565b6000612c4d602c836135f2565b91507f4552433732313a20617070726f76656420717565727920666f72206e6f6e657860008301527f697374656e7420746f6b656e00000000000000000000000000000000000000006020830152604082019050919050565b6000612cb36029836135f2565b91507f4552433732313a207472616e73666572206f6620746f6b656e2074686174206960008301527f73206e6f74206f776e00000000000000000000000000000000000000000000006020830152604082019050919050565b6000612d19602f836135f2565b91507f4552433732314d657461646174613a2055524920717565727920666f72206e6f60008301527f6e6578697374656e7420746f6b656e00000000000000000000000000000000006020830152604082019050919050565b6000612d7f600a83613603565b91507f7b226e616d65223a2022000000000000000000000000000000000000000000006000830152600a82019050919050565b6000612dbf605183613603565b91507f222c20226465736372697074696f6e223a202242656175746966756c20736d6960008301527f6c65792066616365732e222c2022696d616765223a2022646174613a696d616760208301527f652f7376672b786d6c3b6261736536342c0000000000000000000000000000006040830152605182019050919050565b6000612e4b6021836135f2565b91507f4552433732313a20617070726f76616c20746f2063757272656e74206f776e6560008301527f72000000000000000000000000000000000000000000000000000000000000006020830152604082019050919050565b6000612eb1600283613603565b91507f2c200000000000000000000000000000000000000000000000000000000000006000830152600282019050919050565b6000612ef1601d83613603565b91507f646174613a6170706c69636174696f6e2f6a736f6e3b6261736536342c0000006000830152601d82019050919050565b6000612f316031836135f2565b91507f4552433732313a207472616e736665722063616c6c6572206973206e6f74206f60008301527f776e6572206e6f7220617070726f7665640000000000000000000000000000006020830152604082019050919050565b6000612f97600d83613603565b91507f5354524f4b455f434f4c4f5253000000000000000000000000000000000000006000830152600d82019050919050565b6000612fd7600c83613603565b91507f20736d696c6579206661636500000000000000000000000000000000000000006000830152600c82019050919050565b6130138161378d565b82525050565b6000613025828461267a565b915081905092915050565b600061303c828561267a565b9150613048828461267a565b91508190509392505050565b6000613060828a6126ab565b915061306c828961267a565b915061307882886126ab565b9150613084828761267a565b915061309082866126ab565b915061309c828561267a565b91506130a882846126ab565b915081905098975050505050505050565b60006130c48261272a565b91506130d0828461267a565b915081905092915050565b60006130e6826129a8565b91506130f2828461267a565b915081905092915050565b600061310882612b1a565b9150613114828461267a565b915081905092915050565b600061312a82612d72565b9150613136828761267a565b915061314182612ea4565b915061314d828661267a565b915061315882612ea4565b9150613164828561267a565b915061316f82612fca565b915061317a82612db2565b9150613186828461267a565b915061319182612b5a565b915081905095945050505050565b60006131aa82612ee4565b91506131b6828461267a565b915081905092915050565b60006131cc82612f8a565b91506131d8828461267a565b915081905092915050565b60006020820190506131f860008301846125ea565b92915050565b600060808201905061321360008301876125ea565b61322060208301866125ea565b61322d604083018561300a565b818103606083015261323f8184612608565b905095945050505050565b600060408201905061325f60008301856125ea565b61326c602083018461300a565b9392505050565b600060208201905061328860008301846125f9565b92915050565b600060208201905081810360008301526132a88184612641565b905092915050565b600060608201905081810360008301526132ca8186612641565b905081810360208301526132de8185612641565b905081810360408301526132f28184612641565b9050949350505050565b600060608201905081810360008301526133168186612641565b9050613325602083018561300a565b61333260408301846125ea565b949350505050565b6000602082019050818103600083015261335381612790565b9050919050565b60006020820190508181036000830152613373816127f6565b9050919050565b6000602082019050818103600083015261339381612836565b9050919050565b600060208201905081810360008301526133b38161289c565b9050919050565b600060208201905081810360008301526133d3816128dc565b9050919050565b600060208201905081810360008301526133f381612942565b9050919050565b60006020820190508181036000830152613413816129e8565b9050919050565b6000602082019050818103600083015261343381612a4e565b9050919050565b6000602082019050818103600083015261345381612ab4565b9050919050565b6000602082019050818103600083015261347381612b9a565b9050919050565b6000602082019050818103600083015261349381612bda565b9050919050565b600060208201905081810360008301526134b381612c40565b9050919050565b600060208201905081810360008301526134d381612ca6565b9050919050565b600060208201905081810360008301526134f381612d0c565b9050919050565b6000602082019050818103600083015261351381612e3e565b9050919050565b6000602082019050818103600083015261353381612f24565b9050919050565b600060208201905061354f600083018461300a565b92915050565b6000604051905081810181811067ffffffffffffffff8211171561357c5761357b613912565b5b8060405250919050565b600067ffffffffffffffff8211156135a1576135a0613912565b5b601f19601f8301169050602081019050919050565b60008190508160005260206000209050919050565b600081519050919050565b600081519050919050565b600082825260208201905092915050565b600082825260208201905092915050565b600081905092915050565b60006136198261378d565b91506136248361378d565b9250827fffffffffffffffffffffffffffffffffffffffffffffffffffffffffffffffff0382111561365957613658613885565b5b828201905092915050565b600061366f8261378d565b915061367a8361378d565b92508261368a576136896138b4565b5b828204905092915050565b60006136a08261378d565b91506136ab8361378d565b9250817fffffffffffffffffffffffffffffffffffffffffffffffffffffffffffffffff04831182151516156136e4576136e3613885565b5b828202905092915050565b60006136fa8261378d565b91506137058361378d565b92508282101561371857613717613885565b5b828203905092915050565b600061372e8261376d565b9050919050565b60008115159050919050565b60007fffffffff0000000000000000000000000000000000000000000000000000000082169050919050565b600073ffffffffffffffffffffffffffffffffffffffff82169050919050565b6000819050919050565b82818337600083830152505050565b60005b838110156137c45780820151818401526020810190506137a9565b838111156137d3576000848401525b50505050565b600060028204905060018216806137f157607f821691505b60208210811415613805576138046138e3565b5b50919050565b60006138168261378d565b91507fffffffffffffffffffffffffffffffffffffffffffffffffffffffffffffffff82141561384957613848613885565b5b600182019050919050565b600061385f8261378d565b915061386a8361378d565b92508261387a576138796138b4565b5b828206905092915050565b7f4e487b7100000000000000000000000000000000000000000000000000000000600052601160045260246000fd5b7f4e487b7100000000000000000000000000000000000000000000000000000000600052601260045260246000fd5b7f4e487b7100000000000000000000000000000000000000000000000000000000600052602260045260246000fd5b7f4e487b7100000000000000000000000000000000000000000000000000000000600052604160045260246000fd5b6000601f19601f8301169050919050565b61395b81613723565b811461396657600080fd5b50565b61397281613735565b811461397d57600080fd5b50565b61398981613741565b811461399457600080fd5b50565b6139a08161378d565b81146139ab57600080fd5b5056fe416e204e465420772f20494420257320686173206265656e206d696e74656420746f2025734142434445464748494a4b4c4d4e4f505152535455565758595a6162636465666768696a6b6c6d6e6f707172737475767778797a303132333435363738392b2fa26469706673582212201e966e6f2bf895136cfd35b8ce507e0016bca8bc629c4ffd653994a34d57a5bb64736f6c634300080000333c73766720786d6c6e733d27687474703a2f2f7777772e77332e6f72672f323030302f7376672720636c6173733d27682d3620772d36272066696c6c3d27272076696577426f783d2730203020323420323427207374726f6b653d2763757272656e74436f6c6f72273e3c726563742077696474683d273130302527206865696768743d2731303025272066696c6c3d2727202f3e3c70617468207374726f6b652d6c696e656361703d27726f756e6427207374726f6b653d2727207374726f6b652d6c696e656a6f696e3d27726f756e6427207374726f6b652d77696474683d27322720643d274d31342e3832382031342e3832386134203420302030312d352e36353620304d39203130682e30314d3135203130682e30314d32312031326139203920302031312d31382030203920392030203031313820307a27202f3e3c2f7376673e",
  "linkReferences": {},
  "deployedLinkReferences": {}
}